:03000000020302F6
:0C030200787FE4F6D8FD75812A020349DB
:1003FA00021D0000021F000002230000021A000072
:10040A00021800000210000002160000020A000092
:10041A00022100000212000002080000022500006A
:10042A0002270000011C00010C00010E000114004B
:0F043A00010D00010F00011500012A000129002A
:10051400E4F512F513E513B507FBE512B506F6226B
:0404DB007F967E008A
:1004DF00E4F521F522E522B507FBE521B506F62265
:09052400C2A0C2A1C2A2C2A3221E
:10044A0020800B1204DB208008431C018003531C0C
:10045A00FE20810B1204DB208108431C0280035317
:10046A001CFD531CFB20820B1204DB208208431C58
:10047A00088003531CF720830A1204DB20830743F6
:07048A001C1022531CEF229D
:10038E0020942C0524E52470020523E4F51AF51BB0
:10039E00C3E524940AE52364809480404E431C20D8
:1003AE0075230075240AE4F510F511752A0122054E
:1003BE001BE51B7002051AE4F523F524C3E51B9417
:1003CE003CE51A648094804022531CDF751A007538
:1003DE001B3CE529B40114E52AB4010FC3740C9536
:0C03EE0019F511E49518F510E4F52A2229
:10000E00E5157032E51C30E52DE4F51DF51EF51FE6
:10001E00F520751501F50CF50EF50DF50FC2A1D2F3
:10002E00A0C2A3D2A27529017F0CFE120514E4F51D
:10003E0029C2A0C2A222E515640160030200CDE52B
:10004E001C30E57BE4F51DF51EF51FF52075150139
:10005E00F50CF50EF50DF50FE51C30E00920E10667
:10006E00C2A1D2A0800DE51C20E004C2A08004C273
:10007E00A0C2A1E51C30E10920E006C2A0D2A180F9
:10008E000DE51C20E104C2A18004C2A0C2A1E51CA2
:10009E0030E30920E406C2A3D2A2800DE51C20E3C2
:1000AE0004C2A28004C2A2C2A3E51C30E40620E36F
:1000BE000302016EE51C20E403C2A32202017BE5CC
:1000CE001564016003020180E51C30E50302018026
:1000DE00C374149511FFE49510FED3EF9400EE94C3
:1000EE0000400280047E007F00D3E5209FE51F9E26
:1000FE004003020180751D00751E01751501E4F5A2
:10010E000CF50EF50DF50FE51C30E00920E106C2E9
:10011E00A1D2A0800DE51C20E004C2A08004C2A0E4
:10012E00C2A1E51C30E10920E006C2A0D2A1800DDB
:10013E00E51C20E104C2A18004C2A0C2A1E51C30CE
:10014E00E30920E406C2A3D2A2800DE51C20E3043D
:10015E00C2A28004C2A2C2A3E51C30E40820E305BB
:10016E00C2A2D2A322E51C20E403C2A322C2A2C2D1
:10017E00A322E51C20E571E4F515F51DF51EF51F0E
:10018E00F520E51C20E00DE4F50CF50DE5264525E2
:10019E007011800BE50CB4010AE52645257004C2EA
:1001AE00A0C2A2E50D7020E50F701CE50C7018E5DD
:1001BE000E7014309411750E01C2A0D2A1C2A2D23B
:1001CE00A3F52775280C22E51C20E10DE4F50DF5AD
:1001DE000CE52845277011800BE50EB4010AE528C1
:0901EE0045277004C2A1C2A3223E
:10049100758922758BF3758DF3758855759850752F
:0F04A1008A03758C0375878075B82275A892221F
:1004C600E4F592F59175960FF595F5B2F5B1F5B49B
:0504D600F5B3F5A022C2
:1005030030940D7F0A7E001204DF309403751501C9
:0105130022C5
:1004EF001204911204C612052412050312044A12B3
:0404FF00000E80F873
:03000B000201F7F8
:1001F700C0E0C0F0C083C082C0D075D000C000C0CE
:1002070001C002C003C004C005C006C0070517E54A
:100217001770020516C39404E51664809480401E87
:10022700050BE50B7002050A0522E5227002052180
:100237000509E50970020508751600751700AE2156
:10024700AF22EE3395E0FDFCE47B607AEAF9F8C370
:100257001204B05006752100752200C3E5099464A5
:10026700E508648094804009750800750900120349
:100277008EC3E50B94E8E50A64809483404F051329
:10028700E51370020512750A00750B00E526452572
:100297006008E526152670021525E528452760081C
:1002A700E528152870021527E51E6401451D70080D
:1002B7000520E5207002051FE529B4010A0519E5A7
:1002C70019700205188006751800751900D3E51313
:1002D700942CE51264809481400675120075130012
:1002E700D007D006D005D004D003D002D001D0006B
:0B02F700D0D0D082D083D0F0D0E03215
:10030E000204EFE493A3F8E493A34003F68001F212
:10031E0008DFF48029E493A3F85407240CC8C333F0
:10032E00C4540F4420C8834004F456800146F6DFBF
:10033E00E4800B01020408102040809003FAE47E52
:10034E00019360BCA3FF543F30E509541FFEE493B4
:10035E00A360010ECF54C025E060A840B8E493A37B
:10036E00FAE493A3F8E493A3C8C582C8CAC583CAA6
:10037E00F0A3C8C582C8CAC583CADFE9DEE780BE5E
:0104490000B2
:1004B000EB9FF5F0EA9E42F0E99D42F0EC6480C8C3
:0604C00064809845F02263
:00000001FF
